S0110000496E746572727570742E7372656346
S113000012C021C021C01FC01EC01DC01CC01BC007
S11300101AC019C018C017C016C015C014C013C028
S113002012C011C010C011241FBECFE5D4E0DEBF42
S1130030CDBF20E0A0E6B0E001C01D92A236B20719
S1130040E1F719D022C0DCCF1F920F920FB60F92A6
S113005011248F939F938091600090916100019689
S113006090936100809360009F918F910F900FBED9
S11300700F901F9018958B98939A85B78C6085BFC5
S11100808BB780688BBF7894FFCFF894FFCFC6
S9030000FC
